{
  "transactions": [
    {
      "hash": "0x35046b46a163788ebcc539ba00cc91fed67345e4f393a00c77b1952594ad4435",
      "transactionType": "CREATE",
      "contractName": "TelephoneAttack",
      "contractAddress": "0x8970d6b8dbe42660375c91d43ec666239603928a",
      "function": null,
      "arguments": [
        "0xF79890ccb860424a5e91dae195Cf681052B30129"
      ],
      "transaction": {
        "from": "0x3642ed56fae4d06f0dede1447a4cfbfc0355e295",
        "gas": "0x44d92",
        "value": "0x0",
        "input": "0x608060405234801561000f575f5ffd5b50604051610386380380610386833981810160405281019061003191906100d4565b805f5f6101000a81548173ffffffffffffffffffffffffffffffffffffffff021916908373ffffffffffffffffffffffffffffffffffffffff160217905550506100ff565b5f5ffd5b5f73ffffffffffffffffffffffffffffffffffffffff82169050919050565b5f6100a38261007a565b9050919050565b6100b381610099565b81146100bd575f5ffd5b50565b5f815190506100ce816100aa565b92915050565b5f602082840312156100e9576100e8610076565b5b5f6100f6848285016100c0565b91505092915050565b61027a8061010c5f395ff3fe608060405234801561000f575f5ffd5b5060043610610034575f3560e01c8063d018db3e14610038578063d4b8399214610054575b5f5ffd5b610052600480360381019061004d919061017d565b610072565b005b61005c6100fb565b6040516100699190610203565b60405180910390f35b5f5f9054906101000a900473ffffffffffffffffffffffffffffffffffffffff1673ffffffffffffffffffffffffffffffffffffffff1663a6f9dae1826040518263ffffffff1660e01b81526004016100cb919061022b565b5f604051808303815f87803b1580156100e2575f5ffd5b505af11580156100f4573d5f5f3e3d5ffd5b5050505050565b5f5f9054906101000a900473ffffffffffffffffffffffffffffffffffffffff1681565b5f5ffd5b5f73ffffffffffffffffffffffffffffffffffffffff82169050919050565b5f61014c82610123565b9050919050565b61015c81610142565b8114610166575f5ffd5b50565b5f8135905061017781610153565b92915050565b5f602082840312156101925761019161011f565b5b5f61019f84828501610169565b91505092915050565b5f819050919050565b5f6101cb6101c66101c184610123565b6101a8565b610123565b9050919050565b5f6101dc826101b1565b9050919050565b5f6101ed826101d2565b9050919050565b6101fd816101e3565b82525050565b5f6020820190506102165f8301846101f4565b92915050565b61022581610142565b82525050565b5f60208201905061023e5f83018461021c565b9291505056fea2646970667358221220f23d8ab7742c135d3d24d8ac7c0e5ba0ba202737db03ac3a0d1c8589c25b17f864736f6c63430008210033000000000000000000000000f79890ccb860424a5e91dae195cf681052b30129",
        "nonce": "0xec",
        "chainId": "0xaa36a7"
      },
      "additionalContracts": [],
      "isFixedGasLimit": false
    },
    {
      "hash": "0xde93ac85284a8b86666fd2f90e1237a336fa7b0829efd00fbe48c33183366b5e",
      "transactionType": "CALL",
      "contractName": "TelephoneAttack",
      "contractAddress": "0x8970d6b8dbe42660375c91d43ec666239603928a",
      "function": "attack(address)",
      "arguments": [
        "0x3642Ed56fAE4d06f0dedE1447A4cFbFc0355e295"
      ],
      "transaction": {
        "from": "0x3642ed56fae4d06f0dede1447a4cfbfc0355e295",
        "to": "0x8970d6b8dbe42660375c91d43ec666239603928a",
        "gas": "0xae75",
        "value": "0x0",
        "input": "0xd018db3e0000000000000000000000003642ed56fae4d06f0dede1447a4cfbfc0355e295",
        "nonce": "0xed",
        "chainId": "0xaa36a7"
      },
      "additionalContracts": [],
      "isFixedGasLimit": false
    }
  ],
  "receipts": [
    {
      "status": "0x1",
      "cumulativeGasUsed": "0x1876881",
      "logs": [],
      "logsBloom": "0x00000000000000000000000000000000000000000000000000000000000000000000000000000000000000000000000000000000000000000000000000000000000000000000000000000000000000000000000000000000000000000000000000000000000000000000000000000000000000000000000000000000000000000000000000000000000000000000000000000000000000000000000000000000000000000000000000000000000000000000000000000000000000000000000000000000000000000000000000000000000000000000000000000000000000000000000000000000000000000000000000000000000000000000000000000000",
      "type": "0x2",
      "transactionHash": "0x35046b46a163788ebcc539ba00cc91fed67345e4f393a00c77b1952594ad4435",
      "transactionIndex": "0x7b",
      "blockHash": "0xd75b801395c413c26926775e0bbd054b9f9e7f35aee6f25f26629c7fe9190c4a",
      "blockNumber": "0xa07b24",
      "gasUsed": "0x34f5d",
      "effectiveGasPrice": "0xf4327",
      "from": "0x3642ed56fae4d06f0dede1447a4cfbfc0355e295",
      "to": null,
      "contractAddress": "0x8970d6b8dbe42660375c91d43ec666239603928a"
    },
    {
      "status": "0x1",
      "cumulativeGasUsed": "0x187e6d0",
      "logs": [],
      "logsBloom": "0x00000000000000000000000000000000000000000000000000000000000000000000000000000000000000000000000000000000000000000000000000000000000000000000000000000000000000000000000000000000000000000000000000000000000000000000000000000000000000000000000000000000000000000000000000000000000000000000000000000000000000000000000000000000000000000000000000000000000000000000000000000000000000000000000000000000000000000000000000000000000000000000000000000000000000000000000000000000000000000000000000000000000000000000000000000000",
      "type": "0x2",
      "transactionHash": "0xde93ac85284a8b86666fd2f90e1237a336fa7b0829efd00fbe48c33183366b5e",
      "transactionIndex": "0x7c",
      "blockHash": "0xd75b801395c413c26926775e0bbd054b9f9e7f35aee6f25f26629c7fe9190c4a",
      "blockNumber": "0xa07b24",
      "gasUsed": "0x7e4f",
      "effectiveGasPrice": "0xf4327",
      "from": "0x3642ed56fae4d06f0dede1447a4cfbfc0355e295",
      "to": "0x8970d6b8dbe42660375c91d43ec666239603928a",
      "contractAddress": null
    }
  ],
  "libraries": [],
  "pending": [],
  "returns": {},
  "timestamp": 1774424019057,
  "chain": 11155111,
  "commit": null
}