{
  "transactions": [
    {
      "hash": "0x18b6edc08e9a390aa91030a870051062a2e890457a575127f2c1f16594cd7e1a",
      "transactionType": "CALL",
      "contractName": null,
      "contractAddress": "0xf4ce1788af43fe7aa1adb06d589e7cd9b36a0f2e",
      "function": "flip(bool)",
      "arguments": [
        "true"
      ],
      "transaction": {
        "from": "0x3642ed56fae4d06f0dede1447a4cfbfc0355e295",
        "to": "0xf4ce1788af43fe7aa1adb06d589e7cd9b36a0f2e",
        "gas": "0x16fde",
        "value": "0x0",
        "input": "0x1d263f670000000000000000000000000000000000000000000000000000000000000001",
        "nonce": "0xe1",
        "chainId": "0xaa36a7"
      },
      "additionalContracts": [],
      "isFixedGasLimit": false
    }
  ],
  "receipts": [
    {
      "status": "0x1",
      "cumulativeGasUsed": "0x14ae148",
      "logs": [],
      "logsBloom": "0x00000000000000000000000000000000000000000000000000000000000000000000000000000000000000000000000000000000000000000000000000000000000000000000000000000000000000000000000000000000000000000000000000000000000000000000000000000000000000000000000000000000000000000000000000000000000000000000000000000000000000000000000000000000000000000000000000000000000000000000000000000000000000000000000000000000000000000000000000000000000000000000000000000000000000000000000000000000000000000000000000000000000000000000000000000000",
      "type": "0x2",
      "transactionHash": "0x18b6edc08e9a390aa91030a870051062a2e890457a575127f2c1f16594cd7e1a",
      "transactionIndex": "0xa8",
      "blockHash": "0x01b2e4130c8f683dd283dfa155fa05e07f0879ff9f4b515adea3db55c1f9c466",
      "blockNumber": "0xa07994",
      "gasUsed": "0x10a55",
      "effectiveGasPrice": "0xf4328",
      "from": "0x3642ed56fae4d06f0dede1447a4cfbfc0355e295",
      "to": "0xf4ce1788af43fe7aa1adb06d589e7cd9b36a0f2e",
      "contractAddress": null
    }
  ],
  "libraries": [],
  "pending": [],
  "returns": {},
  "timestamp": 1774419086705,
  "chain": 11155111,
  "commit": null
}