{
  "transactions": [
    {
      "hash": "0x40489acfa76eef0f143c5edd1f26069e9b2de272b3571e3f329f28d7aa43d583",
      "transactionType": "CALL",
      "contractName": null,
      "contractAddress": "0xf4ce1788af43fe7aa1adb06d589e7cd9b36a0f2e",
      "function": "flip(bool)",
      "arguments": [
        "true"
      ],
      "transaction": {
        "from": "0x3642ed56fae4d06f0dede1447a4cfbfc0355e295",
        "to": "0xf4ce1788af43fe7aa1adb06d589e7cd9b36a0f2e",
        "gas": "0x123d1",
        "value": "0x0",
        "input": "0x1d263f670000000000000000000000000000000000000000000000000000000000000001",
        "nonce": "0xe6",
        "chainId": "0xaa36a7"
      },
      "additionalContracts": [],
      "isFixedGasLimit": false
    }
  ],
  "receipts": [
    {
      "status": "0x1",
      "cumulativeGasUsed": "0xa68bd3",
      "logs": [],
      "logsBloom": "0x00000000000000000000000000000000000000000000000000000000000000000000000000000000000000000000000000000000000000000000000000000000000000000000000000000000000000000000000000000000000000000000000000000000000000000000000000000000000000000000000000000000000000000000000000000000000000000000000000000000000000000000000000000000000000000000000000000000000000000000000000000000000000000000000000000000000000000000000000000000000000000000000000000000000000000000000000000000000000000000000000000000000000000000000000000000",
      "type": "0x2",
      "transactionHash": "0x40489acfa76eef0f143c5edd1f26069e9b2de272b3571e3f329f28d7aa43d583",
      "transactionIndex": "0x54",
      "blockHash": "0xf74cf4650aa19bdc1ccf3b42eec62ec6a2d61f120cd3932e750796aa869dc6b7",
      "blockNumber": "0xa07a20",
      "gasUsed": "0xc789",
      "effectiveGasPrice": "0x10cffc",
      "from": "0x3642ed56fae4d06f0dede1447a4cfbfc0355e295",
      "to": "0xf4ce1788af43fe7aa1adb06d589e7cd9b36a0f2e",
      "contractAddress": null
    }
  ],
  "libraries": [],
  "pending": [],
  "returns": {},
  "timestamp": 1774420838255,
  "chain": 11155111,
  "commit": null
}