{
  "transactions": [
    {
      "hash": "0xf4454d119fc5a16ca3105b48145be117795ad1ade9a87d49e1176b21ca7b6f6b",
      "transactionType": "CALL",
      "contractName": null,
      "contractAddress": "0xf4ce1788af43fe7aa1adb06d589e7cd9b36a0f2e",
      "function": "flip(bool)",
      "arguments": [
        "true"
      ],
      "transaction": {
        "from": "0x3642ed56fae4d06f0dede1447a4cfbfc0355e295",
        "to": "0xf4ce1788af43fe7aa1adb06d589e7cd9b36a0f2e",
        "gas": "0xa647",
        "value": "0x0",
        "input": "0x1d263f670000000000000000000000000000000000000000000000000000000000000001",
        "nonce": "0xe5",
        "chainId": "0xaa36a7"
      },
      "additionalContracts": [],
      "isFixedGasLimit": false
    }
  ],
  "receipts": [
    {
      "status": "0x1",
      "cumulativeGasUsed": "0x14ae504",
      "logs": [],
      "logsBloom": "0x00000000000000000000000000000000000000000000000000000000000000000000000000000000000000000000000000000000000000000000000000000000000000000000000000000000000000000000000000000000000000000000000000000000000000000000000000000000000000000000000000000000000000000000000000000000000000000000000000000000000000000000000000000000000000000000000000000000000000000000000000000000000000000000000000000000000000000000000000000000000000000000000000000000000000000000000000000000000000000000000000000000000000000000000000000000",
      "type": "0x2",
      "transactionHash": "0xf4454d119fc5a16ca3105b48145be117795ad1ade9a87d49e1176b21ca7b6f6b",
      "transactionIndex": "0x87",
      "blockHash": "0x0a820470b196d34df68de89124f7021c5d70061fcd5f74335c735836d60a8eb4",
      "blockNumber": "0xa07a1c",
      "gasUsed": "0x71b2",
      "effectiveGasPrice": "0x10eb79",
      "from": "0x3642ed56fae4d06f0dede1447a4cfbfc0355e295",
      "to": "0xf4ce1788af43fe7aa1adb06d589e7cd9b36a0f2e",
      "contractAddress": null
    }
  ],
  "libraries": [],
  "pending": [],
  "returns": {},
  "timestamp": 1774420790473,
  "chain": 11155111,
  "commit": null
}