{
  "transactions": [
    {
      "hash": "0x8b89f5ea4c35e6dd27d6575034b6bc9fbf3f3f61fb2c1cd5005a8b772c326567",
      "transactionType": "CALL",
      "contractName": null,
      "contractAddress": "0xf4ce1788af43fe7aa1adb06d589e7cd9b36a0f2e",
      "function": "flip(bool)",
      "arguments": [
        "true"
      ],
      "transaction": {
        "from": "0x3642ed56fae4d06f0dede1447a4cfbfc0355e295",
        "to": "0xf4ce1788af43fe7aa1adb06d589e7cd9b36a0f2e",
        "gas": "0x123d1",
        "value": "0x0",
        "input": "0x1d263f670000000000000000000000000000000000000000000000000000000000000001",
        "nonce": "0xe4",
        "chainId": "0xaa36a7"
      },
      "additionalContracts": [],
      "isFixedGasLimit": false
    }
  ],
  "receipts": [
    {
      "status": "0x1",
      "cumulativeGasUsed": "0x110a6ff",
      "logs": [],
      "logsBloom": "0x00000000000000000000000000000000000000000000000000000000000000000000000000000000000000000000000000000000000000000000000000000000000000000000000000000000000000000000000000000000000000000000000000000000000000000000000000000000000000000000000000000000000000000000000000000000000000000000000000000000000000000000000000000000000000000000000000000000000000000000000000000000000000000000000000000000000000000000000000000000000000000000000000000000000000000000000000000000000000000000000000000000000000000000000000000000",
      "type": "0x2",
      "transactionHash": "0x8b89f5ea4c35e6dd27d6575034b6bc9fbf3f3f61fb2c1cd5005a8b772c326567",
      "transactionIndex": "0x5f",
      "blockHash": "0x303da136b207c0c3f40d8c0eb4c486e04e3e6d41607ceb9d0b4d03c950d116ac",
      "blockNumber": "0xa07a16",
      "gasUsed": "0xc789",
      "effectiveGasPrice": "0x11a5ac",
      "from": "0x3642ed56fae4d06f0dede1447a4cfbfc0355e295",
      "to": "0xf4ce1788af43fe7aa1adb06d589e7cd9b36a0f2e",
      "contractAddress": null
    }
  ],
  "libraries": [],
  "pending": [],
  "returns": {},
  "timestamp": 1774420718660,
  "chain": 11155111,
  "commit": null
}