{
  "transactions": [
    {
      "hash": "0x8ca4d1d66fe470dbc7ea9fe51764657cfa6997a5b37522202db6fc808a6f5efa",
      "transactionType": "CALL",
      "contractName": null,
      "contractAddress": "0x9012c7ab2af865309a6dfda9e2c2317edd62b5d9",
      "function": "transfer(address,uint256)",
      "arguments": [
        "0x0000000000000000000000000000000000000000",
        "21"
      ],
      "transaction": {
        "from": "0x3642ed56fae4d06f0dede1447a4cfbfc0355e295",
        "to": "0x9012c7ab2af865309a6dfda9e2c2317edd62b5d9",
        "gas": "0x107d6",
        "value": "0x0",
        "input": "0xa9059cbb00000000000000000000000000000000000000000000000000000000000000000000000000000000000000000000000000000000000000000000000000000015",
        "nonce": "0xf0",
        "chainId": "0xaa36a7"
      },
      "additionalContracts": [],
      "isFixedGasLimit": false
    }
  ],
  "receipts": [
    {
      "status": "0x1",
      "cumulativeGasUsed": "0x2d7dd08",
      "logs": [],
      "logsBloom": "0x00000000000000000000000000000000000000000000000000000000000000000000000000000000000000000000000000000000000000000000000000000000000000000000000000000000000000000000000000000000000000000000000000000000000000000000000000000000000000000000000000000000000000000000000000000000000000000000000000000000000000000000000000000000000000000000000000000000000000000000000000000000000000000000000000000000000000000000000000000000000000000000000000000000000000000000000000000000000000000000000000000000000000000000000000000000",
      "type": "0x2",
      "transactionHash": "0x8ca4d1d66fe470dbc7ea9fe51764657cfa6997a5b37522202db6fc808a6f5efa",
      "transactionIndex": "0xfc",
      "blockHash": "0xdb2df3f6c5ebe49fed90932340ad9820bf4ba121fd1a54e23d11b055ddb206d3",
      "blockNumber": "0xa07c10",
      "gasUsed": "0xbf04",
      "effectiveGasPrice": "0xf433c",
      "from": "0x3642ed56fae4d06f0dede1447a4cfbfc0355e295",
      "to": "0x9012c7ab2af865309a6dfda9e2c2317edd62b5d9",
      "contractAddress": null
    }
  ],
  "libraries": [],
  "pending": [],
  "returns": {},
  "timestamp": 1774426934317,
  "chain": 11155111,
  "commit": null
}