{
  "transactions": [
    {
      "hash": "0xd681b33b17d68528d277c4269a9b327ad9ff92412e8e303cb05e13ed3d4526dd",
      "transactionType": "CALL",
      "contractName": null,
      "contractAddress": "0x2b644191378196224c9e2c1c3fd3aa1877c386a2",
      "function": "transfer(address,uint256)",
      "arguments": [
        "0x0000000000000000000000000000000000000000",
        "21"
      ],
      "transaction": {
        "from": "0x3642ed56fae4d06f0dede1447a4cfbfc0355e295",
        "to": "0x2b644191378196224c9e2c1c3fd3aa1877c386a2",
        "gas": "0x107d6",
        "value": "0x0",
        "input": "0xa9059cbb00000000000000000000000000000000000000000000000000000000000000000000000000000000000000000000000000000000000000000000000000000015",
        "nonce": "0xf5",
        "chainId": "0xaa36a7"
      },
      "additionalContracts": [],
      "isFixedGasLimit": false
    }
  ],
  "receipts": [
    {
      "status": "0x1",
      "cumulativeGasUsed": "0x17132f4",
      "logs": [],
      "logsBloom": "0x00000000000000000000000000000000000000000000000000000000000000000000000000000000000000000000000000000000000000000000000000000000000000000000000000000000000000000000000000000000000000000000000000000000000000000000000000000000000000000000000000000000000000000000000000000000000000000000000000000000000000000000000000000000000000000000000000000000000000000000000000000000000000000000000000000000000000000000000000000000000000000000000000000000000000000000000000000000000000000000000000000000000000000000000000000000",
      "type": "0x2",
      "transactionHash": "0xd681b33b17d68528d277c4269a9b327ad9ff92412e8e303cb05e13ed3d4526dd",
      "transactionIndex": "0x7a",
      "blockHash": "0x04ee8707b33b81c1bc48f2a4a06f6ced03d0cc413237b320d341d964ee7af337",
      "blockNumber": "0xa2280f",
      "gasUsed": "0xbf04",
      "effectiveGasPrice": "0x12218b",
      "from": "0x3642ed56fae4d06f0dede1447a4cfbfc0355e295",
      "to": "0x2b644191378196224c9e2c1c3fd3aa1877c386a2",
      "contractAddress": null
    }
  ],
  "libraries": [],
  "pending": [],
  "returns": {},
  "timestamp": 1775786849124,
  "chain": 11155111,
  "commit": "815f270"
}