{
  "transactions": [
    {
      "hash": "0x236a1df819298289df0332dd02c89dc88cb948a751a99b1f7255517f49364444",
      "transactionType": "CALL",
      "contractName": null,
      "contractAddress": "0x666385d65acaa3b2554cdd58f9d0b35b636063a8",
      "function": "unlock(bytes32)",
      "arguments": [
        "0x412076657279207374726f6e67207365637265742070617373776f7264203a29"
      ],
      "transaction": {
        "from": "0x3642ed56fae4d06f0dede1447a4cfbfc0355e295",
        "to": "0x666385d65acaa3b2554cdd58f9d0b35b636063a8",
        "gas": "0x8242",
        "value": "0x0",
        "input": "0xec9b5b3a412076657279207374726f6e67207365637265742070617373776f7264203a29",
        "nonce": "0xff",
        "chainId": "0xaa36a7"
      },
      "additionalContracts": [],
      "isFixedGasLimit": false
    }
  ],
  "receipts": [
    {
      "status": "0x1",
      "cumulativeGasUsed": "0xc00aa6",
      "logs": [],
      "logsBloom": "0x00000000000000000000000000000000000000000000000000000000000000000000000000000000000000000000000000000000000000000000000000000000000000000000000000000000000000000000000000000000000000000000000000000000000000000000000000000000000000000000000000000000000000000000000000000000000000000000000000000000000000000000000000000000000000000000000000000000000000000000000000000000000000000000000000000000000000000000000000000000000000000000000000000000000000000000000000000000000000000000000000000000000000000000000000000000",
      "type": "0x2",
      "transactionHash": "0x236a1df819298289df0332dd02c89dc88cb948a751a99b1f7255517f49364444",
      "transactionIndex": "0x69",
      "blockHash": "0x8c4b0eb129c464dbebec275529b02a329d39deb1389e4e780e6a17cdfb8cbb11",
      "blockNumber": "0xa22ed8",
      "gasUsed": "0x5e4f",
      "effectiveGasPrice": "0xde0cfa48",
      "from": "0x3642ed56fae4d06f0dede1447a4cfbfc0355e295",
      "to": "0x666385d65acaa3b2554cdd58f9d0b35b636063a8",
      "contractAddress": null
    }
  ],
  "libraries": [],
  "pending": [],
  "returns": {},
  "timestamp": 1775808400244,
  "chain": 11155111,
  "commit": "ca5fac2"
}